{
  "_format": "hh-sol-artifact-1",
  "contractName": "stakingContract",
  "sourceName": "contracts/stakingContract.sol",
  "abi": [
    {
      "inputs": [],
      "name": "ContractDontHaveBalance",
      "type": "error"
    },
    {
      "inputs": [],
      "name": "youDontHaveBalance",
      "type": "error"
    },
    {
      "anonymous": false,
      "inputs": [
        {
          "indexed": true,
          "internalType": "address",
          "name": "previousOwner",
          "type": "address"
        },
        {
          "indexed": true,
          "internalType": "address",
          "name": "newOwner",
          "type": "address"
        }
      ],
      "name": "OwnershipTransferred",
      "type": "event"
    },
    {
      "inputs": [
        {
          "internalType": "address",
          "name": "tokenAddr",
          "type": "address"
        },
        {
          "internalType": "uint256",
          "name": "_amount",
          "type": "uint256"
        }
      ],
      "name": "Staking",
      "outputs": [],
      "stateMutability": "nonpayable",
      "type": "function"
    },
    {
      "inputs": [],
      "name": "owner",
      "outputs": [
        {
          "internalType": "address",
          "name": "",
          "type": "address"
        }
      ],
      "stateMutability": "view",
      "type": "function"
    },
    {
      "inputs": [],
      "name": "renounceOwnership",
      "outputs": [],
      "stateMutability": "nonpayable",
      "type": "function"
    },
    {
      "inputs": [
        {
          "internalType": "uint256",
          "name": "",
          "type": "uint256"
        }
      ],
      "name": "staking",
      "outputs": [
        {
          "internalType": "address",
          "name": "staker",
          "type": "address"
        },
        {
          "internalType": "address",
          "name": "token",
          "type": "address"
        },
        {
          "internalType": "uint256",
          "name": "amount",
          "type": "uint256"
        }
      ],
      "stateMutability": "view",
      "type": "function"
    },
    {
      "inputs": [],
      "name": "stakingId",
      "outputs": [
        {
          "internalType": "uint256",
          "name": "",
          "type": "uint256"
        }
      ],
      "stateMutability": "view",
      "type": "function"
    },
    {
      "inputs": [
        {
          "internalType": "address",
          "name": "newOwner",
          "type": "address"
        }
      ],
      "name": "transferOwnership",
      "outputs": [],
      "stateMutability": "nonpayable",
      "type": "function"
    },
    {
      "inputs": [
        {
          "internalType": "address",
          "name": "_tokenAddr",
          "type": "address"
        },
        {
          "internalType": "uint256",
          "name": "_amount",
          "type": "uint256"
        }
      ],
      "name": "withdrawTokens",
      "outputs": [],
      "stateMutability": "nonpayable",
      "type": "function"
    }
  ],
  "bytecode": "0x608060405234801561001057600080fd5b5061001a3361001f565b61006f565b600080546001600160a01b038381166001600160a01b0319831681178455604051919092169283917f8be0079c531659141344cd1fd0a4f28419497f9722a3daafe3b4186f6b6457e09190a35050565b6107078061007e6000396000f3fe608060405234801561001057600080fd5b506004361061007d5760003560e01c80638da5cb5b1161005b5780638da5cb5b146101085780639d49be3314610123578063b831f69f1461013a578063f2fde38b1461014d57600080fd5b806306b091f9146100825780631dbb2a2214610097578063715018a614610100575b600080fd5b6100956100903660046105f1565b610160565b005b6100d56100a536600461061b565b60016020819052600091825260409091208054918101546002909101546001600160a01b03928316929091169083565b604080516001600160a01b039485168152939092166020840152908201526060015b60405180910390f35b6100956102b9565b6000546040516001600160a01b0390911681526020016100f7565b61012c60025481565b6040519081526020016100f7565b6100956101483660046105f1565b6102cd565b61009561015b366004610634565b610489565b61016861051e565b6040516370a0823160e01b815230600482015281906001600160a01b038416906370a0823190602401602060405180830381865afa1580156101ae573d6000803e3d6000fd5b505050506040513d601f19601f820116820180604052508101906101d29190610656565b101561020a576040517f93a8057a00000000000000000000000000000000000000000000000000000000815260040160405180910390fd5b816001600160a01b031663a9059cbb61022b6000546001600160a01b031690565b6040517fffffffff0000000000000000000000000000000000000000000000000000000060e084901b1681526001600160a01b039091166004820152602481018490526044016020604051808303816000875af1158015610290573d6000803e3d6000fd5b505050506040513d601f19601f820116820180604052508101906102b4919061066f565b505050565b6102c161051e565b6102cb6000610578565b565b6040516370a0823160e01b815233600482015281906001600160a01b038416906370a0823190602401602060405180830381865afa158015610313573d6000803e3d6000fd5b505050506040513d601f19601f820116820180604052508101906103379190610656565b101561036f576040517fa6baffc900000000000000000000000000000000000000000000000000000000815260040160405180910390fd5b6040517f23b872dd000000000000000000000000000000000000000000000000000000008152336004820152306024820152604481018290526001600160a01b038316906323b872dd906064016020604051808303816000875af11580156103db573d6000803e3d6000fd5b505050506040513d601f19601f820116820180604052508101906103ff919061066f565b506002805490600061041083610691565b9091555050604080516060810182523381526001600160a01b039384166020808301918252828401948552600280546000908152600192839052949094209251835490871673ffffffffffffffffffffffffffffffffffffffff1991821617845591519083018054919096169116179093559051910155565b61049161051e565b6001600160a01b0381166105125760405162461bcd60e51b815260206004820152602660248201527f4f776e61626c653a206e6577206f776e657220697320746865207a65726f206160448201527f646472657373000000000000000000000000000000000000000000000000000060648201526084015b60405180910390fd5b61051b81610578565b50565b6000546001600160a01b031633146102cb5760405162461bcd60e51b815260206004820181905260248201527f4f776e61626c653a2063616c6c6572206973206e6f7420746865206f776e65726044820152606401610509565b600080546001600160a01b0383811673ffffffffffffffffffffffffffffffffffffffff19831681178455604051919092169283917f8be0079c531659141344cd1fd0a4f28419497f9722a3daafe3b4186f6b6457e09190a35050565b80356001600160a01b03811681146105ec57600080fd5b919050565b6000806040838503121561060457600080fd5b61060d836105d5565b946020939093013593505050565b60006020828403121561062d57600080fd5b5035919050565b60006020828403121561064657600080fd5b61064f826105d5565b9392505050565b60006020828403121561066857600080fd5b5051919050565b60006020828403121561068157600080fd5b8151801515811461064f57600080fd5b6000600182016106ca577f4e487b7100000000000000000000000000000000000000000000000000000000600052601160045260246000fd5b506001019056fea26469706673582212203ff6103261aea96355313372c824c458cc36c4ace70479a5710c6bfd720f108664736f6c63430008130033",
  "linkReferences": {},
  "deployedLinkReferences": {}
}